:0A13B700000102020303040405050F
:10098600E4F52CF52BF52AF529C203C200C202C2F2
:100996000112139C7E0D7F008E418F4275490D75A5
:1009A6004A12753F0D75401C75470D75484A754BC3
:1009B6000D754C78EE54C07003020A8B752D0075C8
:1009C6002E808E2F8F30C3749A9FFF740D9ECF2476
:1009D60002CF3400FEE48F288E27F526F525F52470
:1009E600F523F522F521AF28AE27AD26AC25AB249D
:1009F600AA23A922A821C3120E775037E530252451
:100A0600F582E52F3523F583E0FFE52E2524F582D3
:100A1600E52D3523F583EFF0E4FAF9F8E524240112
:100A2600F524EA3523F523E93522F522E83521F5C3
:100A36002180B3852D41852E4274002480FF740DDC
:100A460034FFFEC3E54A9FF54AE5499EF549C3E5ED
:100A5600449FF544E5439EF543C3E5469FF546E5C9
:100A6600459EF545C3E5409FF540E53F9EF53FC3EE
:100A7600E5489FF548E5479EF547C3E54C9FF54C8D
:100A8600E54B9EF54BD2E843D82090E668E0440952
:100A9600F090E65CE0443DF0D2AF90E680E054F79B
:100AA600F0538EF8C2031213F63001051206CAC2BD
:100AB600013003F2120CFE50EDC203121244200064
:100AC6001690E682E030E704E020E1EF90E682E06F
:0F0AD60030E604E020E0E41211C51213EC80C7F3
:010AE50022EE
:0B13AC0090E50DE030E402C322D322E4
:1006CA0090E6B9E070030207B514700302085E24CD
:1006DA00FE70030208F724FB70030207AF147003CD
:1006EA000207A914700302079D1470030207A324CA
:1006FA000560030209721213EE400302097E90E6B6
:10070A00BBE024FE603B14605624FD601614604072
:10071A0024067075E54190E6B3F0E54290E6B4F040
:10072A0002097E1213AC500FE54990E6B3F0E54A90
:10073A0090E6B4F002097E90E6A0E04401F00209D6
:10074A007EE54390E6B3F0E54490E6B4F002097E14
:10075A00E54590E6B3F0E54690E6B4F002097E90EE
:10076A00E6BAE0FF1211F1AA06A9077B01EA494B92
:10077A00600DEE90E6B3F0EF90E6B4F002097E90D9
:10078A00E6A0E04401F002097E90E6A0E04401F010
:10079A0002097E12138A02097E1213C902097E1205
:1007AA0013C102097E120BEE02097E1213F04003F6
:1007BA0002097E90E6B8E0247F602B14603C240294
:1007CA006003020854A200E433FF25E0FFA202E41A
:1007DA00334F90E740F0E4A3F090E68AF090E68B7E
:1007EA007402F002097EE490E740F0A3F090E68AF2
:1007FA00F090E68B7402F002097E90E6BCE0547E2B
:10080A00FF7E00E0D3948040067C007D0180047C5A
:10081A00007D00EC4EFEED4F24B7F58274133EF5D1
:10082A0083E493FF3395E0FEEF24A1FFEE34E68FD5
:10083A0082F583E0540190E740F0E4A3F090E68A61
:10084A00F090E68B7402F002097E90E6A0E0440183
:10085A00F002097E1213F2400302097E90E6B8E024
:10086A0024FE601D2402600302097E90E6BAE0B409
:10087A000105C20002097E90E6A0E04401F00209E7
:10088A007E90E6BAE0705990E6BCE0547EFF7E00A6
:10089A00E0D3948040067C007D0180047C007D00CA
:1008AA00EC4EFEED4F24B7F58274133EF583E493C4
:1008BA00FF3395E0FEEF24A1FFEE34E68F82F58345
:1008CA00E054FEF090E6BCE05480FF131313541F6B
:1008DA00FFE0540F2F90E683F0E04420F002097EF7
:1008EA0090E6A0E04401F002097E02097E1213F4A8
:1008FA00400302097E90E6B8E024FE6023240270D9
:10090A005E90E6BAE0B40104D200806890E6BAE0EC
:10091A00B40204805F805D90E6A0E04401F0805458
:10092A0090E6BCE0547EFF7E00E0D3948040067CD3
:10093A00007D0180047C007D00EC4EFEED4F24B763
:10094A00F58274133EF583E493FF3395E0FEEF24BA
:10095A00A1FFEE34E68F82F583E04401F080159022
:10096A00E6A0E04401F0800C120080500790E6A057
:0B097A00E04401F090E6A0E04480F0B3
:01098500224F
:030033000213E0D5
:0413E00053D8EF32BD
:0313E800011700EA
:10139C001213D112133812134D1213D91213E42253
:0113F60022D4
:020CFE00D322FF
:0213EC00D3220A
:0213EE00D32208
:0813C10090E6BAE0F512D32218
:100BEE0090E740E512F0E490E68AF090E68B04F090
:020BFE00D32200
:0813C90090E6BAE0F508D3221A
:10138A0090E740E508F0E490E68AF090E68B04F0F6
:02139A00D3225C
:0213F000D32206
:0213F200D32204
:0213F400D32202
:1000800090E678E05410FFC4540F4450F50B13E48D
:1000900033F51390E6B9E0120E88053DA2053DA3A5
:1000A00004B8A40464A5047EA6049EA704E7A805DA
:1000B00037A904C1AA04D4AB050DAC021BB0024998
:1000C000B1029FB202DCB30319B40356B5038BC06F
:1000D00003B9C103E5C20410D00425D1043AD20407
:1000E0004FD301DFE001F7E1019CEE00F2EF0000E9
:1000F00006C890E6BAE0753100F532A3E0FEE4EE02
:10010000423190E6BEE0753300F534A3E0FEE4EE44
:100110004233E534453370030206C890E6A0E02080
:10012000E1F9C3E5349440E5339400500885333554
:100130008534368006753500753640E4F537F53878
:10014000C3E5389536E5379535501974402538F5AF
:100150008274E73537F58374CDF00538E5387002E1
:10016000053780DCAD367AE779407EE77F40AB0724
:10017000AF32AE31120F7BE490E68AF090E68BE569
:1001800036F02532F532E5353531F531C3E53495B4
:1001900036F534E5339535F53302011290E6BAE0D1
:1001A000753100F532A3E0FEE4EE423190E6BEE0A8
:1001B000753300F534A3E0FEE4EE423390E6A0E0B0
:1001C00020E1F990E6BCE0901000F0A374CDF07A45
:1001D000107B007D01AF32AE311210A20206C89032
:1001E000E600740AF075B518E4F5B0F5177FF47EF3
:1001F00001120CB80206C8E4F5B57FF47E01120CBA
:10020000B890E6007408F090E601E04414F04387EB
:10021000017FF47E01120CB80206C890E6BAE075C0
:100220003100F532A3E0FEE4EE423190E6BEE07527
:100230003300F534A3E0FEE4EE423390E6A0E02084
:10024000E1F9E532F50D0206C890E6BAE075310035
:10025000F532A3E0FEE4EE423190E6BEE0753300F5
:10026000F534A3E0FEE4EE423390E6BCE0F50C90FA
:10027000E6A0E020E1F9D3E53294FFE531940F40A8
:100280000675310F7532FFC3E53194005005E4F572
:1002900031F532AD32AC31AF0D120EAE0206C89060
:1002A000E6BAE0753100F53290E6BCE0F50C90E678
:1002B000A0E020E1F9D3E53294FFE5319400400657
:1002C00075310F7532FFC3E53194005005E4F53107
:1002D000F532AD32AF0D12121C0206C890E6BAE03C
:1002E000753100F53290E6BCE0F50C90E6A0E02018
:1002F000E1F9D3E53294FFE531940F400675310002
:100300007532FFC3E53194005005E4F531F532ADA7
:1003100032AF0D12121C0206C890E6BAE075310029
:10032000F53290E6BCE0F50C90E6A0E020E1F9D3D0
:10033000E53294FFE531940F40067531007532FFC8
:10034000C3E53194005005E4F531F532AD32AF0D1F
:1003500012121C0206C890E6BCE0F51090E6BEE062
:10036000753300F534A3E0FEE4EE423390E6A0E0FE
:1003700020E1F97AE77B40AD10AF0E121109E4904D
:10038000E68AF090E68B04F00206C890E6BAE075C3
:100390003100F532A3E0FEE4EE423190E6BEE075B6
:1003A0003300F534A3E0FEE4EE423390E6A0E02013
:1003B000E1F9E532F5110206C890E6BCE0F51890C7
:1003C000E6A0E020E1F97AE779407F40EFFB7A0090
:1003D000AD18AF11121198E490E68AF090E68B7494
:1003E00002F00206C890E6BAE0750900F50AA3E03B
:1003F000FEE4EE4209A3E0F518AB0AAA09FDAF112D
:10040000120FC4E490E68AF090E68B04F00206C86E
:1004100090E6BCE0F51490E6A0E020E1F9AF1412FC
:1004200012C00206C890E6BCE0F51490E6A0E020F9
:10043000E1F9AF141212DA0206C890E6BCE0F50F3B
:1004400090E6A0E020E1F9AF0F1213620206C89017
:10045000E6BCE0F50F90E6A0E020E1F9AF0F121343
:10046000760206C890E740E513F0E490E68AF09043
:10047000E68B04F090E6A0E04480F00206C890E627
:1004800000E0FFC4540F90E740F0E490E68AF0905B
:10049000E68B04F090E6A0E04480F00206C890E706
:1004A00040740FF0E490E68AF090E68B04F090E65A
:1004B000A0E04480F00206C890E6BAE0F50B020620
:1004C000C890E67AE054FEF0E490E68AF090E68B7D
:1004D000F00206C890E67AE04401F0E490E68AF083
:1004E00090E68BF00206C890E7407407F0E490E6CF
:1004F0008AF090E68B04F090E6A0E04480F07FE87C
:100500007E03120CB8D2041211690206C890E6B537
:10051000E054FEF090E6BFE090E68AF090E6BEE0A0
:1005200090E68BF090E6BBE090E6B3F090E6BAE0A0
:1005300090E6B4F00206C8751301430B0190E6BAC9
:10054000E0753100F532A3E0FEE4EE423190E6BE04
:10055000E0753300F534A3E0FEE4EE423390E6B8F4
:10056000E064C0600302062FE534453370030206E1
:10057000C890E6A0E020E1F9C3E5349440E5339467
:10058000005008853335853436800675350075365C
:100590004090E6B9E0B4A336E4F537F538C3E53862
:1005A0009536E53795355062E5322538F582E531E7
:1005B0003537F583E0FF74402538F58274E7353729
:1005C000F583EFF00538E5387002053780CFE4F5A4
:1005D00037F538C3E5389536E53795355019744009
:1005E0002538F58274E73537F58374CDF00538E5A5
:1005F000387002053780DCAD367AE779407EE77FD8
:1006000040AB07AF32AE31120F7BE490E68AF09038
:10061000E68BE536F02532F532E5353531F531C377
:10062000E5349536F534E5339535F53302056890B4
:10063000E6B8E0644060030206C8E5344533700361
:100640000206C8E490E68AF090E68BF090E6A0E01F
:1006500020E1F990E68BE0753500F53690E6B9E0DB
:10066000B4A336E4F537F538C3E5389536E5379564
:1006700035503974402538F58274E73537F583E015
:10068000FFE5322538F582E5313537F583EFF005A2
:1006900038E5387002053780CFAD367AE779407E8D
:1006A000E77F40AB07AF32AE311210A2E5362532FC
:1006B000F532E5353531F531C3E5349536F534E5B8
:0906C000339535F53302063AC307
:0106C900220E
:10126900C0E0C083C08290E6B5E04401F0D20153EA
:0F12790091EF90E65D7401F0D082D083D0E03227
:10130C00C0E0C083C0825391EF90E65D7404F0D0CE
:06131C0082D083D0E03214
:10132200C0E0C083C0825391EF90E65D7402F0D0BA
:0613320082D083D0E032FE
:100FFE00C0E0C083C08290E680E030E70E853F43BC
:10100E00854044854745854846800C85474385483D
:10101E0044853F458540465391EF90E65D7410F050
:07102E00D082D083D0E03234
:1012F400C0E0C083C082D2035391EF90E65D7408CE
:08130400F0D082D083D0E0326A
:10103500C0E0C083C08290E680E030E70E853F4384
:10104500854044854745854846800C854743854806
:1010550044853F458540465391EF90E65D7420F009
:07106500D082D083D0E032FD
:0113F70032C3
:0113F80032C2
:0113F90032C1
:0113FA0032C0
:0113FB0032BF
:0113FC0032BE
:0113FD0032BD
:0113FE0032BC
:0113FF0032BB
:0114000032B9
:0114010032B8
:0114020032B7
:0114030032B6
:0114040032B5
:0114050032B4
:0114060032B3
:0114070032B2
:0114080032B1
:0114090032B0
:01140A0032AF
:01140B0032AE
:01140C0032AD
:01140D0032AC
:01140E0032AB
:01140F0032AA
:0114100032A9
:0114110032A8
:0114120032A7
:0114130032A6
:0114140032A5
:0114150032A4
:0114160032A3
:0114170032A2
:0114180032A1
:0114190032A0
:01141A00329F
:060F3100AB07AA06AC05A7
:100F3700E4FDE5136010EA7E000DEE2402F582E47D
:100F47003410F583EAF0EBAE050D74022EF582E45A
:100F57003410F583EBF0AF050D74022FF582E434FE
:100F670010F583ECF07A107B02AF0B1212A4AF0BD3
:030F770012106CE9
:010F7A002254
:0A10A2008E398F3A8D3B8A3C8B3D5E
:1010AC00E4F53EE53EC3953B5020053AE53AAE39B2
:1010BC007002053914FFE53D253EF582E4353CF51B
:0A10CC0083E0FD120F31053E80D9CC
:0110D60022F7
:0A0F7B008E398F3A8D3B8A3C8B3D86
:100F8500E4FDE5136012E539FF7E000DEE2402F560
:100F950082E43410F583EFF0E53AAE050D74022EC8
:100FA500F582E43410F583E53AF07A107B02AF0B55
:0E0FB5001212A4AB3DAA3CAD3BAF0B1212884A
:010FC300220B
:1013380075B3FF7FF47E01120CB890E601E054FC0F
:05134800F07590332256
:10134D0075B4FF7FF47E01120CB890E601E054FCF9
:05135D00F075A0132251
:0713D900750D18750E1922B5
:0413E40075118022DD
:02121C00AE051D
:10121E00E4FD0D2402F582E43410F5837402F0EE41
:10122E000D74022401F582E43410F583EEF07A1089
:05123E007B021212A466
:011243002288
:060EAE008F398C3A8D3BE8
:100EB400E4F53CAF3C053C74022FF582E43410F5B4
:100EC40083E4F0E53AC4F854F0C868E53BC4540F31
:100ED40048FFAE3C053C74022EF582E43410F583E1
:100EE400EFF07A107B02AD3CAF391212A4E4F53C6A
:100EF400AF3C053C74022FF582E43410F583740191
:100F0400F0E53B540FC4F8540FC868FFE4C454F030
:100F140048AE3C053C74022EF582E43410F583EFB0
:0C0F2400F07A107B02AD3CAF391212A431
:010F3000229E
:061109008F398A3A8B3B8E
:10110F00E4F53CAF3C053C74022FF582E43410F556
:10111F0083EDF07A107B02AD3C7F181212A4AB3B2B
:09112F00AA3AAD3CAF3912128856
:011138002294
:1012C000EF14600C14600E2402700EC292D29322AE
:0A12D000C296D29722C2A2D2A32236
:1012DA00EF14600C14600E2402700EC292C29322A4
:0A12EA00C296C29722C2A2C2A3223C
:10136200EF14600A14600A24027008D2A422D2A5E3
:0413720022D2A622BB
:10137600EF14600A14600A24027008C2A422C2A5EF
:0413860022C2A622B7
:040FC400AC07AF05C2
:100FC800E4FD0D2402F582E43410F583EFF0EA0D18
:100FD80074022401F582E43410F583EAF0EB0D7411
:100FE800022402F582E43410F583EBF0AF047A10A2
:050FF8007B021212A4AF
:010FFD0022D1
:081198008F398A3A8B3BAE054A
:1011A000E4FD0D2402F582E43410F583EEF07A10AC
:1011B0007B021212A4AE3AAF3BAB07AA067D02AF88
:0411C0003912128846
:0111C4002208
:100D00001201000200000040B404041000000102BF
:100D100000010A06000200000040010009022E0046
:100D200001010080320904000004FF0000000705F3
:100D30000202000200070504020002000705860205
:100D40000002000705880200020009022E000101CE
:100D50000080320904000004FF00000007050202C1
:100D6000400000070504024000000705860240001D
:100D70000007058802400000040309041003430033
:100D80007900700072006500730073000E03450067
:0C0D90005A002D005500530042000000E6
:1011C50090E682E030E004E020E60B90E682E03035
:1011D500E119E030E71590E680E04401F07F147EE8
:0C11E50000120CB890E680E054FEF022EE
:1011690030040990E680E0440AF0800790E680E0C8
:101179004408F07FDC7E05120CB890E65D74FFF040
:0F11890090E65FF05391EF90E680E054F7F0228C
:100CB8008E398F3A90E600E054187012E53A240114
:100CC800FFE43539C313F539EF13F53A801590E68B
:100CD80000E05418FFBF100BE53A25E0F53AE53976
:100CE80033F539E53A153AAE39700215394E6005D3
:060CF80012125880EE22EA
:0813D100E4F51ED2E9D2AF22BF
:10106C00AD0790E678E020E6F9C2E990E678E04436
:10107C0080F090E679EDF090E678E030E0F990E6DB
:10108C0078E04440F090E678E020E6F990E678E0ED
:06109C0030E1D8D2E92288
:10113900AC0790E678E020E6F9E51E702190E678A4
:10114900E04480F090E679ECF08D19AF03A90775BA
:101159001A018A1B891CE4F51D751E01D322C322BD
:1010D700AC0790E678E020E6F9E51E702390E67805
:1010E700E04480F0EC440190E679F08D19AF03A954
:1010F70007751A018A1B891CE4F51D751E03D32287
:02110700C32201
:03004B00020AE6C0
:100AE600C0E0C083C082C085C084C086758600C051
:100AF600D075D000C000C001C002C003C006C00748
:100B060090E678E030E206751E06020BD090E67895
:100B1600E020E10CE51E64026006751E07020BD09C
:100B2600E51E24FE605F14603624FE7003020BC1CE
:100B360024FC7003020BCD24086003020BD0AB1A11
:100B4600AA1BA91CAF1D051D8F82758300120E28D6
:100B560090E679F0E51D65197070751E05806B903D
:100B6600E679E0AB1AAA1BA91CAE1D8E827583001E
:100B7600120E55751E02E5196401704E90E678E076
:100B86004420F08045E51924FEB51D0790E678E07F
:100B96004420F0E51914B51D0A90E678E04440F0CB
:100BA600751E0090E679E0AB1AAA1BA91CAE1D8E35
:100BB60082758300120E55051D800F90E678E0447D
:100BC60040F0751E008003751E005391DFD007D0DC
:100BD60006D003D002D001D000D0D0D086D084D0A9
:080BE60085D082D083D0E032FB
:0211F100A9074C
:1011F300AE4BAF4C8F828E83A3E064037017AD01B7
:1012030019ED7001228F828E83E07C002FFDEC3E6E
:08121300FEAF0580DFE4FEFFE1
:01121B0022B0
:101288001210D7E51E24FA600E146006240770F3C6
:0C129800D322E4F51ED322E4F51ED3227D
:1012A400121139E51E24FA600E146006240770F347
:0C12B400D322E4F51ED322E4F51ED32261
:1012440090E682E044C0F090E681F043870100001C
:041254000000002274
:101258007400F58690FDA57C05A3E582458370F9A9
:011268002263
:03004300020C00AC
:03005300020C009C
:100C0000021269000213220002130C000212F40007
:100C1000020FFE00021035000213F7000213F80065
:100C20000213F9000213FA000213FB000213FC0086
:100C30000213FD000213FE000213FF000214000065
:100C4000021401000213F80002140200021403004F
:100C50000214040002140500021406000214070026
:100C6000021408000213F8000213F8000213F8003F
:100C70000214090002140A0002140B0002140C00F2
:100C800002140D0002140E0002140F0002141000D2
:100C900002141100021412000214130002141400B2
:100CA0000214150002141600021417000214180092
:080CB0000214190002141A00DD
:03000000020D9C52
:0C0D9C00787FE4F6D8FD75814C020DE371
:100E2800BB010CE58229F582E5833AF583E022507F
:100E380006E92582F8E622BBFE06E92582F8E222C9
:0D0E4800E58229F582E5833AF583E49322E3
:100E5500F8BB010DE58229F582E5833AF583E8F0D3
:100E6500225006E92582C8F622BBFE05E92582C87F
:020E7500F22267
:100E7700EB9FF5F0EA9E42F0E99D42F0E89C45F0D1
:010E87002248
:100E8800D083D082F8E4937012740193700DA3A3F9
:100E980093F8740193F5828883E47374029368600D
:060EA800EFA3A3A380DF0D
:100DA800020986E493A3F8E493A34003F68001F2D2
:100DB80008DFF48029E493A3F85407240CC8C3334C
:100DC800C4540F4420C8834004F456800146F6DF1B
:100DD800E4800B01020408102040809013E8E47EB0
:100DE800019360BCA3FF543F30E509541FFEE49310
:100DF800A360010ECF54C025E060A840B8E493A3D7
:100E0800FAE493A3F8E493A3C8C582C8CAC583CA01
:100E1800F0A3C8C582C8CAC583CADFE9DEE780BEB9
:0113EB000001
:00000001FF
